:10050F0070617373776F72643A004F4E20004552DB
:07051F005200202020200003
:04057200021800006B
:10018C0012053B7BFF7A05790F7D017F011204B0CC
:10019C00750C04E4FBFA7D017F0212048C1200033F
:1001AC008F1CE51C60F7D3940A748094805043C371
:1001BC00E5199404E518648094805036AE1AAF1B90
:1001CC007C007D0A1202968E1A8F1BE51C75F00AB4
:1001DC0084E5F0251BF51BE4351AF51A0519E5190C
:1001EC0070020518750C04AB1BAA1A7D017F021254
:1001FC00048CE51C640B7036E51BB4570DE51AB482
:10020C0004087BFF7A05791980067BFF7A05791D36
:10021C007D0C7F011204B0E4F518F519F51AF51BE5
:10022C00750C04AB1BAA1A7D017F0212048CE51C11
:10023C00640C60030201A9F518F519F51AF51B7B7E
:10024C00FF7A0579217D0C7F011204B0750C04AB8B
:0D025C001BAA1A7D017F0212048C0201A969
:06054F00C2A58F80D2A7B7
:080555007F027EEFDEFEDFFCF9
:01055D00227B
:0A055E00C2A612054FC2A702055500
:1004D300CFCDCFCECCCE1202A87C007D0A1202A8CB
:0404E300ED2430FFD5
:0A04E700D2A612054FC2A702055568
:1004F100AE07EEFB7A0064017004ED148009EB6431
:0E050100024A7009ED243F4480FF12055E227D
:10053B007F3812055E7F0C12055E7F0612055E7F0B
:04054B000102055E46
:0A056800AC031204F1AF040204E733
:0604B0008B088A09890A8D
:1004B6001204F1E4FDAB08AA09A90A8D827583002E
:0C04C600120269FF60061204E70D80E9D5
:0104D2002207
:0A045B00EF24FFFDEE34FFFC7F0AE2
:080465008E0D8F0E8C0F8D101F
:10046D007F017E00E4FBEBC39510E50F6480F8740B
:0E047D008098500AAC0DAD0E1202960B80E86E
:01048B00224E
:04048C008A0A8B0B42
:100490001204F1AA0CEAFF7E00D3940074809480C9
:0F04A000400D12045BAC0AAD0B1204D31A80E6B8
:0104AF00222A
:0403D4008B828A830B
:1003D8001204F1C3E58364809480400D7F2B1204DE
:1003E800E785831685821780107F2D1204E7C3E402
:1003F8009582F517E49583F516AA15EAFF7E00D3D2
:10040800940074809480400D12045BAC16AD1712F2
:0504180004D31A80E688
:01041D0022BC
:040389008A1F8B201C
:10038D001204F1AA21EAD39400748094804037EAD4
:10039D0024FFFDE434FFFC7F107E00120465AC1FCA
:1003AD00AD20CFCDCFCECCCE1202A8EF540FFEC3D1
:1003BD00940A74809480EE5004243080022437FF18
:0603CD001204E71A80BFD4
:0103D3002207
:04041E008A248B257C
:100422001204F1AA26EAFF7E00D39400748094801D
:100432004026EF24FFFDEE34FFFC7F02120465AC80
:1004420024AD25CFCDCFCECCCE1202A8EF540124BD
:0804520030FF1204E71A80CD0F
:01045A00227F
:10052600EF1FAC0670011E4C600A7D027CC7DCFE24
:04053600DDFC80EC7C
:01053A00229E
:10000300E4F5087590FFC2932097137F14FE120541
:10001300263097FD7F147E00120526750801209671
:10002300147F147E001205263096FD7F147E001285
:1000330005267508052095147F147E0012052630C9
:1000430095FD7F147E001205267508092094147F00
:10005300147E001205263094FD7F147E00120526BF
:1000630075080D7590FFC2922097147F147E0012BD
:1000730005263097FD7F147E0012052675080220A1
:1000830096147F147E001205263096FD7F147E00A1
:100093001205267508062095147F147E0012052686
:1000A3003095FD7F147E0012052675080A209414EE
:1000B3007F147E001205263094FD7F147E00120506
:1000C3002675080E7590FFC2912097147F147E0049
:1000D3001205263097FD7F147E001205267508034E
:1000E3002096147F147E001205263096FD7F147E21
:1000F300001205267508072095147F147E0012054B
:10010300263095FD7F147E0012052675080B20947A
:10011300147F147E001205263094FD7F147E001296
:10012300052675080F7590FFC2902097147F147EE3
:10013300001205263097FD7F147E001205267508F0
:10014300042096147F147E001205263096FD7F143A
:100153007E001205267508082095147F147E001270
:1001630005263095FD7F147E0012052675080C20A8
:1001730094147F147E001205263094FD7F147E00B4
:08018300120526750810AF08F3
:01018B002251
:030000000202FDFC
:0C02FD00787FE4F6D8FD758126020344EA
:10026900BB010CE58229F582E5833AF583E022504A
:1002790006E92582F8E622BBFE06E92582F8E22294
:0D028900E58229F582E5833AF583E49322AE
:10029600EF8DF0A4A8F0CF8CF0A428CE8DF0A42E7C
:0202A600FE2236
:1002A800BC000BBE0029EF8DF084FFADF022E4CC3A
:1002B800F875F008EF2FFFEE33FEEC33FCEE9DEC03
:1002C800984005FCEE9DFE0FD5F0E9E4CEFD22ED49
:1002D800F8F5F0EE8420D21CFEADF075F008EF2F93
:1002E800FFED33FD4007985006D5F0F222C398FD84
:0502F8000FD5F0EA2221
:1003090002018CE493A3F8E493A34003F68001F27D
:1003190008DFF48029E493A3F85407240CC8C333F5
:10032900C4540F4420C8834004F456800146F6DFC4
:10033900E4800B0102040810204080900572E47EDD
:10034900019360BCA3FF543F30E509541FFEE493B9
:10035900A360010ECF54C025E060A840B8E493A380
:10036900FAE493A3F8E493A3C8C582C8CAC583CAAB
:10037900F0A3C8C582C8CAC583CADFE9DEE780BE63
:010576000084
:00000001FF
