:100082000000000000000000FF080808FF003C4AD2
:100092004A4A4A340000FF01010100FF0101010048
:1000A20000384482828244380000000000000000D0
:10000300E4F50AC2A5E4F508C3E5089408748094EE
:10001300805014E509250890008293FD7C00AF0809
:100023001200B2050880E1050AD3E50A940574803D
:10003300948040D1E4F50A0509D3E5099428748036
:09004300948040C1E4F50980BC81
:1000D400EF1FAC0670011E4C600A7D027CC7DCFE7B
:0400E400DDFC80ECD3
:0100E80022F5
:0500F500C2B6C2B522F5
:02004C00AD07FE
:10004E00E4FBEBC394087480948050237E0074808C
:10005E00A803088006CEA2E713CE13D8F8FFEDF55D
:10006E0082EF558224FF92B4D2B6C2B60B80D3D2A1
:03007E00B5C2B553
:01008100225C
:1000B200AA07AF0512004CAF02A80774800880029D
:1000C200C313D8FCF4F5807F017E001200D4758042
:0200D200FF220B
:030000000200E912
:0C00E900787FE4F6D8FD75810A02000360
:00000001FF
