:08021A00021C0000021E00009E
:1001D5001201EDC2A51200038F21E52160F7FD7C18
:0801E500007F0112024480EDCD
:03000B0002009A56
:10009A00C0E0C0F0C083C082C0D075D000C000C02C
:0D00AA0001C002C003C004C005C006C007AD
:1000B700758A18758CFC051DE51D7002051C051F4A
:1000C700E51F7002051EC3E51D9414E51C9400404E
:1000D70009751C00751D00120176C3E51F9402E522
:0E00E7001E94004009751E00751F001201B620
:1000F500D007D006D005D004D003D002D001D0005F
:0B010500D0D0D082D083D0F0D0E03208
:10022F00EF1FAC0670011E4C600A7D027CC7DCFE1E
:04023F00DDFC80EC76
:010243002298
:05000300AF24E4F52428
:0100080022D5
:10020400E4FF20B1010F20B0027F0220B2027F037D
:0502140020B3027F048D
:0102190022C2
:100176008522231202048F22AF237E00EF640170D2
:1001860007E5227003752401EF64024E7007E5222D
:100196007003752402E52364037007E52270037576
:0F01A6002403E52364047007E522700375240425
:0101B5002227
:0C0222000A123F065B4F666D7D077F6F80
:09024400AE0574092FF8A606228C
:10011000E4F580EF14B40800505490012875F00302
:10012000A4C58325F0C58373020140020144020186
:100130004802014C020150020158020160020168AC
:10014000D2A4800ED2A48012D2A48016D2A4801A87
:10015000C2A4D2A3D2A28016C2A4D2A3C2A2800EED
:10016000C2A4C2A3D2A28006C2A4C2A3C2A2741215
:060170002DF8E6F58022E7
:1001B60074092508F8E6FD7C00AF08120110050851
:0E01C600C3E508940974809480400375080115
:0101D4002208
:1001ED005389F0438901758A18758CFCC28DD28CA8
:0701FD00D2A9D2AFC2B92262
:0300000002000EED
:0C000E00787FE4F6D8FD758124020055CF
:10001A000201D5E493A3F8E493A34003F68001F226
:10002A0008DFF48029E493A3F85407240CC8C333E7
:10003A00C4540F4420C8834004F456800146F6DFB6
:10004A00E4800B010204081020408090021AE47E2A
:10005A00019360BCA3FF543F30E509541FFEE493AB
:10006A00A360010ECF54C025E060A840B8E493A372
:10007A00FAE493A3F8E493A3C8C582C8CAC583CA9D
:10008A00F0A3C8C582C8CAC583CADFE9DEE780BE55
:01022E0000CF
:00000001FF
