:1002EF00EF1FAC0670011E4C600A7D027CEFDCFE36
:0402FF00DDFC80ECB6
:0103030022D7
:06032800C2A58F80D2A7E0
:08032E007F027EEFDEFEDFFC22
:0103360022A4
:0A035900C2A6120328C2A702032E59
:1002B300CFCDCFCECCCE1200E27C007D0A1200E27D
:0402C300ED2430FFF7
:0A02C700D2A6120328C2A702032EDC
:1002D100AE07EEFB7A0064017004ED148009EB6453
:0E02E100024A7009ED243F4480FF12035922A7
:100304007F381203597F0C1203597F061203597F59
:040314000102035986
:0A036300AC031202D1AF040202C77E
:060290008B2E8A2F89303D
:100296001202D1E4FDAB2EAA2FA9308D8275830000
:0C02A6001200A3FF60061202C70D80E9E1
:0102B2002229
:0A023B00EF24FFFDEE34FFFC7F0A04
:080245008E198F1A8C1B8D1C11
:10024D007F017E00E4FBEBC3951CE51B6480F87415
:0E025D008098500AAC19AD1A1200D00B80E840
:01026B002270
:04026C008A168B174C
:100270001202D1AA18EAFF7E00D394007480948001
:0F028000400D12023BAC16AD171202B31A80E606
:01028F00224C
:040182008B828A835F
:100186001202D1C3E58364809480400D7F2B120256
:10019600C785832285822380107F2D1202C7C3E480
:1001A6009582F523E49583F522AA21EAFF7E00D302
:1001B600940074809480400D12023BAC22AD231251
:0501C60002B31A80E6FF
:0101CB002211
:040137008A268B2762
:10013B001202D1AA28EAD39400748094804037EA43
:10014B0024FFFDE434FFFC7F107E00120245AC2639
:10015B00AD27CFCDCFCECCCE1200E2EF540FFEC3E6
:10016B00940A74809480EE5004243080022437FF6C
:06017B001202C71A80BF4A
:01018100225B
:0401CC008A2B8B2CC3
:1001D0001202D1AA2DEAFF7E00D39400748094808D
:1001E0004026EF24FFFDEE34FFFC7F02120245ACF7
:1001F0002BAD2CCFCDCFCECCCE1200E2EF540124CC
:0802000030FF1202C71A80CD85
:0102080022D3
:100318005389F0438901E4F58AF58CC28DC28C2299
:0B034300AD07AC068C8CAF058F8A2242
:09036D00AF8CEFFEAD8AEDFF221A
:06037600EF24FF928C222F
:1002090012030412034E120318E4FFFE1203437F84
:10021900011203767F0A7E001202EF12036D8E31FE
:100229008F32751805AB32AA317D017F0112026C3C
:0202390080FE45
:0B034E00D288C289D2A8D2AFD2B82258
:06037C0012031802034EFB
:03000300020006F2
:10000600C0E0C0F0C083C082C0D075D000C000C0C0
:1000160001C002C003C004C005C006C007E50870E1
:100026000FFFFE1203437F0112037675080180134A
:10003600E5086401700D12036D8E098F0AE4FFFE58
:10004600120343D3E50A94C8E5099432400FE50A42
:1000560094B0E509943650057508028025D3E50A63
:1000660094FEE50994294017E50A94E6E509942DDE
:10007600500D750D01E4FF120376750800800375B7
:100086000801D007D006D005D004D003D002D00195
:0D009600D000D0D0D082D083D0F0D0E032A6
:03000000020337C1
:0C033700787FE4F6D8FD758133020209DE
:1000A300BB010CE58229F582E5833AF583E0225012
:1000B30006E92582F8E622BBFE06E92582F8E2225C
:0D00C300E58229F582E5833AF583E4932276
:1000D000EF8DF0A4A8F0CF8CF0A428CE8DF0A42E44
:0200E000FE22FE
:1000E200BC000BBE0029EF8DF084FFADF022E4CC02
:1000F200F875F008EF2FFFEE33FEEC33FCEE9DECCB
:10010200984005FCEE9DFE0FD5F0E9E4CEFD22ED10
:10011200F8F5F0EE8420D21CFEADF075F008EF2F5A
:10012200FFED33FD4007985006D5F0F222C398FD4B
:050132000FD5F0EA22E8
:00000001FF
