:0400030002080000EF
:10015B0075A0FE12018012009A8F0AE50A60F764FF
:10016B000170F3050BC3E50B94027480948040E699
:05017B00E4F50B80E13A
:03000B000200FBF5
:0F00FB00C0E0C0D075D000C000C004C005C00771
:10010A00758A18758CFC0509E50970020508C394FF
:10011A00F4E5089401402D750800750900E50BFD0A
:10012A007C00700DAFA07801EF08800123D8FDF59F
:10013A00A0ED64014C700DAFA07801EF08800103B7
:04014A00D8FDF5A047
:0D014E00D007D005D004D000D0D0D0E032D2
:100180005389F0438901758A18758CFCC28DD28C15
:07019000D2A9D2AFC2B922CF
:10019700EF1FAC0670011E4C600A7D027CC7DCFEB7
:0401A700DDFC80EC0F
:0101AB002231
:10009A00E4F50C20B1137F14FE12019730B1FD7FF5
:1000AA00147E00120197750C0120B0147F147E0093
:1000BA0012019730B0FD7F147E00120197750C0271
:1000CA0020B2147F147E0012019730B2FD7F147E95
:1000DA0000120197750C0320B3147F147E001201DD
:1000EA009730B3FD7F147E00120197750C04AF0C94
:0100FA0022E3
:0300000002000EED
:0C000E00787FE4F6D8FD75810C020055E7
:10001A0002015BE493A3F8E493A34003F68001F2A0
:10002A0008DFF48029E493A3F85407240CC8C333E7
:10003A00C4540F4420C8834004F456800146F6DFB6
:10004A00E4800B0102040810204080900003E47E43
:10005A00019360BCA3FF543F30E509541FFEE493AB
:10006A00A360010ECF54C025E060A840B8E493A372
:10007A00FAE493A3F8E493A3C8C582C8CAC583CA9D
:10008A00F0A3C8C582C8CAC583CADFE9DEE780BE55
:0100070000F8
:00000001FF
