:1000F700EF1FAC0670011E4C600A7D027CC7DCFE58
:04010700DDFC80ECAF
:01010B0022D1
:03011400010800DF
:05001E0012000380FE4A
:030023000200B226
:1000B200C0E0C0F0C083C082C0D075D000C000C014
:1000C20001C002C003C004C005C006C00730980AC0
:1000D2008599A0AF9912010CC298D007D006D0051D
:1000E200D004D003D002D001D000D0D0D082D083AF
:0500F200D0F0D0E03267
:1000030043878075985053890F438920758BF47506
:0B0013008DF4C2ABD28ED2AFD2AC2273
:08010C008F993099FDC2992280
:03000000020026D5
:0C002600787FE4F6D8FD75810802006DBB
:1000320002001EE493A3F8E493A34003F68001F2C6
:1000420008DFF48029E493A3F85407240CC8C333CF
:10005200C4540F4420C8834004F456800146F6DF9E
:10006200E4800B0102040810204080900114E47E19
:10007200019360BCA3FF543F30E509541FFEE49393
:10008200A360010ECF54C025E060A840B8E493A35A
:10009200FAE493A3F8E493A3C8C582C8CAC583CA85
:1000A200F0A3C8C582C8CAC583CADFE9DEE780BE3D
:0101170000E7
:00000001FF
