:1009390020200020202D20202D20200020203A20BA
:05094900203A2020000F
:1006AC00120463E518FB7A00750C027D017F0112C0
:1006BC00089FE519FB7A00750C027D047F01120876
:1006CC009FE51AFB7A00750C027D077F0112089FCB
:1006DC00E51BFB7A00750C027D017F0212089FE579
:1006EC001CFB7A00750C027D047F0212089FE51D2D
:0D06FC00FB7A00750C027D077F0202089F4B
:10000E00AF247E00EF6402700B0521E52175F0062A
:10001E008485F021EF64034E60030200F37418250B
:10002E0021F806D3E5189463748094804003E4F5B8
:10003E0018D3E519940C748094804003751901AFA0
:10004E0019EF6401601EEF64036019EF640560141C
:10005E00EF6407600FEF6408600AEF640A6005EF53
:10006E00640C700DD3E51A941F74809480404C80FC
:10007E0047AF19EF6404600FEF6406600AEF64097E
:10008E006005EF640B700DD3E51A941E7480948096
:10009E0040298024E51964027021E5185403700D7F
:1000AE00D3E51A941D748094804010800BD3E51A0A
:1000BE00941C748094804003751A01D3E51B941729
:1000CE00748094804003E4F51BD3E51C943B74804C
:1000DE0094804003E4F51CD3E51D943B748094801A
:1000EE004003E4F51DE524640460030201EC74187A
:1000FE002521F816C3748094805003751863C3E5E8
:10010E0019940174809480500375190CAF19EF6423
:10011E0001601EEF64036019EF64056014EF64075D
:10012E00600FEF6408600AEF640A6005EF640C70FC
:10013E001BC3E51A9401748094805003751A1FD363
:10014E00E51A941F7480948040768071AF19EF6425
:10015E0004600FEF6406600AEF64096005EF640B3C
:10016E00701BC3E51A9401748094805003751A1E97
:10017E00D3E51A941E7480948040458040E519643E
:10018E0002703DE5185403701BC3E51A9401748088
:10019E0094805003751A1DD3E51A941D74809480B3
:1001AE00401E8019C3E51A94017480948050037523
:1001BE001A1CD3E51A941C748094804003751A019E
:1001CE00C3748094805003751B17C3748094805041
:1001DE0003751C3BC3748094805003751D3BE52151
:1001EE007015E5236401700F7BFF7A0979397D0163
:1001FE007F011208C3800FE518FB7A00750C027D93
:10020E00017F0112089FE52164017015E523640149
:10021E00700F7BFF7A0979397D047F011208C38044
:10022E000FE519FB7A00750C027D047F0112089F01
:10023E00E52164027015E5236401700F7BFF7A09D6
:10024E0079397D077F011208C3800FE51AFB7A000A
:10025E00750C027D077F0112089FE521640370155E
:10026E00E5236401700F7BFF7A0979397D017F02E6
:10027E001208C3800FE51BFB7A00750C027D017F0F
:10028E000212089FE52164047015E5236401700FC6
:10029E007BFF7A0979397D047F021208C3800FE54E
:1002AE001CFB7A00750C027D047F0212089FE5216B
:1002BE0064057013E5236401700D7BFF7A097939AB
:1002CE007D077F020208C3E51DFB7A00750C027DD7
:0702DE00077F0212089F22B6
:100709001209631200031209227BFF7A09793C7DE1
:10071900017F011208C37BFF7A0979457D017F02B8
:100729001208C31202E51205EB8F24EF6401701859
:10073900AF22FEEF7007752201F521800BEF6401EE
:100749004E7005F5221202E5E5221460080470D600
:0A0759001206AC80D112000E80CC15
:03000B00020835B3
:09083500C0E0C0D075D000C0077E
:10083E00758A18758CFC0520E5207002051FC3947F
:10084E00F4E51F94014012751F00752000E523701A
:09085E00047F0180027F008F235A
:07086700D007D0D0D0E03231
:06097700C2A58F80D2A78B
:08097D007F027EEFDEFEDFFCCD
:01098500224F
:0A098600C2A6120977C2A702097D7C
:1008E600CFCDCFCECCCE12040E7C007D0A12040EE4
:0408F600ED2430FFBE
:0A08FA00D2A6120977C2A702097DF9
:10090400AE07EEFB7A0064017004ED148009EB6419
:0E091400024A7009ED243F4480FF120986223A
:100963007F381209867F0C1209867F061209867F5B
:0409730001020986EE
:0A099000AC03120904AF040208FAD8
:0608C3008B088A09890A76
:1008C900120904E4FDAB08AA09A90A8D82758300FF
:0C08D9001203CFFF60061208FA0D80E940
:0108E50022F0
:0A086E00EF24FFFDEE34FFFC7F0ACB
:080878008E0D8F0E8C0F8D1008
:100880007F017E00E4FBEBC39510E50F6480F874F4
:0E0890008098500AAC0DAD0E1203FC0B80E8F0
:01089E002237
:04089F008A0A8B0B2B
:1008A300120904AA0CEAFF7E00D39400748094809A
:0F08B300400D12086EAC0AAD0B1208E61A80E673
:0108C2002213
:0407AE008B828A832D
:1007B200120904C3E58364809480400D7F2B1208E4
:1007C200FA85831685821780107F2D1208FAC3E4FA
:1007D2009582F517E49583F516AA15EAFF7E00D3F4
:1007E200940074809480400D12086EAC16AD1712FE
:0507F20008E61A80E694
:0107F70022DF
:040763008A278B282E
:10076700120904AA29EAD39400748094804037EAD6
:1007770024FFFDE434FFFC7F107E00120878AC27CD
:10078700AD28CFCDCFCECCCE12040EEF540FFEC383
:10079700940A74809480EE5004243080022437FF3A
:0607A7001208FA1A80BFDF
:0107AD002229
:0407F8008A2C8B2D8F
:1007FC00120904AA2EEAFF7E00D394007480948020
:10080C004026EF24FFFDEE34FFFC7F02120878AC8B
:10081C002CAD2DCFCDCFCECCCE12040EEF54012467
:08082C0030FF1208FA1A80CD1A
:0108340022A1
:09099A00071819011209163706AD
:05000300C2B6C2B522E7
:06057C0025F0FDEC3EFC41
:060582008C088D09AB0797
:10058800D2B5E4FDEDC394087480948050227E00B7
:100598007401A805088005C333CE33CED8F9FFEB24
:1005A800F582EF558224FF92B4D2B6C2B60D80D43C
:1005B800E4FDEDC394087480948050247E00740197
:1005C800A805088005C333CE33CED8F9FFE5085E09
:1005D800FEE5095F4E24FF92B4D2B6C2B60D80D2B2
:0205E800C2B59A
:0105EA0022EE
:02064C00AD07F8
:10064E00E4F9430501D2B5FBEBC3940874809480A2
:10065E0050227E007401A803088005C333CE33CE2A
:10066E00D8F9FFEDF582EF558224FF92B4C2B6D2CF
:10067E00B60B80D4E4FBEBC39408748094805017BF
:10068E00D2B6C2B630B40DA8037401088002C333CB
:0D069E00D8FC42010B80DFC2B5C2B4AF0131
:0106AB00222C
:1002E500E4FDFC7F8E120582E51875F00A8475F031
:1002F50010A4FFAEF0E51875F00A84EF7F8C1205A7
:100305007CE51975F00A8475F010A4FFAEF0E519C7
:1003150075F00A847C00EF7F8812057CE51A75F07C
:100325000A8475F010A4FFAEF0E51A75F00A847C16
:1003350000EF25F0FDEC3EFC7F86120582E51B757E
:10034500F00A8475F010A4FFAEF0E51B75F00A8481
:100355007C00EF25F0FDEC3EFC7F84120582E51C58
:1003650075F00A8475F010A4FFAEF0E51C75F00A6F
:10037500847C00EF25F0FDEC3EFC7F82120582E5D2
:100385001D75F00A8475F010A4FFAEF0E51D75F03B
:100395000A847C00EF25F0FDEC3EFC7F801205828F
:1003A500E51E75F00A8475F010A4FFAEF0E51E7524
:1003B500F00A847C00EF25F0FDEC3EFC7F8A1205F7
:0A03C500827D807C007F8E0205829D
:100463007F8C12064CEFC4540F75F00AA4FEEF54B0
:100473000F2EF5187F8812064CEFC4540F75F00A3F
:10048300A4FEEF540F2EF5197F8612064CEFC454C9
:100493000F75F00AA4FEEF540F2EF51A7F8412068F
:1004A3004CEFC4540F75F00AA4FEEF540F2EF51B46
:1004B3007F8212064CEFC4540F75F00AA4FEEF546A
:1004C3000F2EF51C7F8012064CEFC4540F75F00AF3
:1004D300A4FEEF540F2EF51D7F8A12064CEFC45471
:0C04E3000F75F00AA4FEEF540F2EF51E5A
:0104EF0022EA
:10094E00EF1FAC0670011E4C600A7D027CC7DCFEF8
:04095E00DDFC80EC50
:010962002272
:1005EB00E4F50820B1137F14FE12094E30B1FD7FE4
:1005FB00147E0012094E75080120B0147F147E0082
:10060B0012094E30B0FD7F147E0012094E750802A0
:10061B0020B2147F147E0012094E30B2FD7F147E7F
:10062B000012094E75080320B3147F147E001209C3
:10063B004E30B3FD7F147E0012094E750804AF08CF
:01064B00228C
:100922005389F0438901758A18758CFCC28DD28C6B
:07093200D2A9D2AFC2B92225
:030000000204F007
:0C04F000787FE4F6D8FD75812E020537F8
:1003CF00BB010CE58229F582E5833AF583E02250E3
:1003DF0006E92582F8E622BBFE06E92582F8E2222D
:0D03EF00E58229F582E5833AF583E4932247
:1003FC00EF8DF0A4A8F0CF8CF0A428CE8DF0A42E15
:02040C00FE22CE
:10040E00BC000BBE0029EF8DF084FFADF022E4CCD2
:10041E00F875F008EF2FFFEE33FEEC33FCEE9DEC9B
:10042E00984005FCEE9DFE0FD5F0E9E4CEFD22EDE1
:10043E00F8F5F0EE8420D21CFEADF075F008EF2F2B
:10044E00FFED33FD4007985006D5F0F222C398FD1C
:05045E000FD5F0EA22B9
:1004FC00020709E493A3F8E493A34003F68001F206
:10050C0008DFF48029E493A3F85407240CC8C33300
:10051C00C4540F4420C8834004F456800146F6DFCF
:10052C00E4800B010204081020408090099AE47EBC
:10053C00019360BCA3FF543F30E509541FFEE493C4
:10054C00A360010ECF54C025E060A840B8E493A38B
:10055C00FAE493A3F8E493A3C8C582C8CAC583CAB6
:10056C00F0A3C8C582C8CAC583CADFE9DEE780BE6E
:0109A3000053
:00000001FF
