:10059A0020202D20202D20200020203A20203A2023
:0205AA0020002F
:10029A001205861205D91200037BFF7A05799A7D29
:1002AA00017F011205127BFF7A0579A37D017F0286
:1002BA00120512120181E518FB7A00750C027D0104
:1002CA007F011204EEE519FB7A00750C027D047FAA
:1002DA00011204EEE51AFB7A00750C027D077F0114
:1002EA001204EEE51BFB7A00750C027D017F0212F7
:1002FA0004EEE51CFB7A00750C027D047F021204F1
:10030A00EEE51DFB7A00750C027D077F021204EEF2
:02031A0080A1C0
:0605AC00C2A58F80D2A75A
:0805B2007F027EEFDEFEDFFC9C
:0105BA00221E
:0A05BB00C2A61205ACC2A70205B2E9
:10053500CFCDCFCECCCE12012C7C007D0A12012C62
:04054500ED2430FF72
:0A054900D2A61205ACC2A70205B24B
:10055300AE07EEFB7A0064017004ED148009EB64CE
:0E056300024A7009ED243F4480FF1205BB22BE
:100586007F381205BB7F0C1205BB7F061205BB7FA9
:04059600010205BB9E
:0A05C500AC03120553AF0402054910
:060512008B088A09890A2A
:10051800120553E4FDAB08AA09A90A8D8275830068
:0C0528001200EDFF60061205490D80E98D
:0105340022A4
:0A04BD00EF24FFFDEE34FFFC7F0A80
:0804C7008E0D8F0E8C0F8D10BD
:1004CF007F017E00E4FBEBC39510E50F6480F874A9
:0E04DF008098500AAC0DAD0E12011A0B80E889
:0104ED0022EC
:0404EE008A0A8B0BE0
:1004F200120553AA0CEAFF7E00D394007480948004
:0F050200400D1204BDAC0AAD0B1205351A80E690
:0105110022C7
:040436008B828A83A8
:10043A00120553C3E58364809480400D7F2B120517
:10044A004985831685821780107F2D120549C3E4DA
:10045A009582F517E49583F516AA15EAFF7E00D36F
:10046A00940074809480400D1204BDAC16AD17122E
:05047A0005351A80E6C3
:01047F00225A
:0403EB008A218B22B6
:1003EF00120553AA23EAD39400748094804037EA0D
:1003FF0024FFFDE434FFFC7F107E001204C7AC2104
:10040F00AD22CFCDCFCECCCE12012CEF540FFEC3E9
:10041F00940A74809480EE5004243080022437FFB5
:06042F001205491A80BF0E
:0104350022A4
:040480008A268B2716
:10048400120553AA28EAFF7E00D394007480948056
:100494004026EF24FFFDEE34FFFC7F021204C7ACBC
:1004A40026AD27CFCDCFCECCCE12012CEF540124D4
:0804B40030FF1205491A80CD4A
:0104BC00221D
:0905CF000718190112091637067C
:0505D900C2B6C2B5220C
:06031C0025F0FDEC3EFCA3
:060322008C088D09AB07F9
:10032800D2B5E4FDEDC394087480948050227E0019
:100338007401A805088005C333CE33CED8F9FFEB86
:10034800F582EF558224FF92B4D2B6C2B60D80D49E
:10035800E4FDEDC394087480948050247E007401F9
:10036800A805088005C333CE33CED8F9FFE5085E6B
:10037800FEE5095F4E24FF92B4D2B6C2B60D80D214
:02038800C2B5FC
:01038A002250
:02038B00AD07BC
:10038D00E4F9430501D2B5FBEBC394087480948066
:10039D0050227E007401A803088005C333CE33CEEE
:1003AD00D8F9FFEDF582EF558224FF92B4C2B6D293
:1003BD00B60B80D4E4FBEBC3940874809480501783
:1003CD00D2B6C2B630B40DA8037401088002C3338F
:0D03DD00D8FC42010B80DFC2B5C2B4AF01F5
:0103EA0022F0
:10000300E4FDFC7F8E120322E51875F00A8475F077
:1000130010A4FFAEF0E51875F00A84EF7F8C12038D
:100023001CE51975F00A8475F010A4FFAEF0E5190C
:1000330075F00A847C00EF7F8812031CE51A75F0C3
:100043000A8475F010A4FFAEF0E51A75F00A847CFB
:1000530000EF25F0FDEC3EFC7F86120322E51B75C5
:10006300F00A8475F010A4FFAEF0E51B75F00A8466
:100073007C00EF25F0FDEC3EFC7F84120322E51C9F
:1000830075F00A8475F010A4FFAEF0E51C75F00A54
:10009300847C00EF25F0FDEC3EFC7F82120322E519
:1000A3001D75F00A8475F010A4FFAEF0E51D75F020
:1000B3000A847C00EF25F0FDEC3EFC7F80120322D6
:1000C300E51E75F00A8475F010A4FFAEF0E51E7509
:1000D300F00A847C00EF25F0FDEC3EFC7F8A1203DE
:0A00E300227D807C007F8E02032244
:100181007F8C12038BEFC4540F75F00AA4FEEF5459
:100191000F2EF5187F8812038BEFC4540F75F00AE8
:1001A100A4FEEF540F2EF5197F8612038BEFC45472
:1001B1000F75F00AA4FEEF540F2EF51A7F84120377
:1001C1008BEFC4540F75F00AA4FEEF540F2EF51BEC
:1001D1007F8212038BEFC4540F75F00AA4FEEF5413
:1001E1000F2EF51C7F8012038BEFC4540F75F00A9C
:1001F100A4FEEF540F2EF51D7F8A12038BEFC4541A
:0C0201000F75F00AA4FEEF540F2EF51E3E
:01020D0022CE
:10057100EF1FAC0670011E4C600A7D027CC7DCFED9
:04058100DDFC80EC31
:010585002253
:0300000002020EEB
:0C020E00787FE4F6D8FD758128020255C7
:1000ED00BB010CE58229F582E5833AF583E02250C8
:1000FD0006E92582F8E622BBFE06E92582F8E22212
:0D010D00E58229F582E5833AF583E493222B
:10011A00EF8DF0A4A8F0CF8CF0A428CE8DF0A42EF9
:02012A00FE22B3
:10012C00BC000BBE0029EF8DF084FFADF022E4CCB7
:10013C00F875F008EF2FFFEE33FEEC33FCEE9DEC80
:10014C00984005FCEE9DFE0FD5F0E9E4CEFD22EDC6
:10015C00F8F5F0EE8420D21CFEADF075F008EF2F10
:10016C00FFED33FD4007985006D5F0F222C398FD01
:05017C000FD5F0EA229E
:10021A0002029AE493A3F8E493A34003F68001F25E
:10022A0008DFF48029E493A3F85407240CC8C333E5
:10023A00C4540F4420C8834004F456800146F6DFB4
:10024A00E4800B01020408102040809005CFE47E70
:10025A00019360BCA3FF543F30E509541FFEE493A9
:10026A00A360010ECF54C025E060A840B8E493A370
:10027A00FAE493A3F8E493A3C8C582C8CAC583CA9B
:10028A00F0A3C8C582C8CAC583CADFE9DEE780BE53
:0105D8000022
:00000001FF
