:100168001201D9751232C2A51201078F13EF64016B
:1001780070280515531503AF15FEEF7002F512EF41
:1001880064014E7003751205EF64024E7003751218
:1001980032EF64034E7003751264E515FD7C007F31
:0601A8000112009A80C262
:03000B000201AE41
:1001AE00C0E0C0F0C0D0758A9C758CFF0514E514B4
:1001BE0075F0648485F014E514C395125004D29141
:0B01CE008002C291D0D0D0F0D0E0320F
:1001F000EF1FAC0670011E4C600A7D027CEFDCFE36
:04020000DDFC80ECB5
:0102040022D7
:10010700E4F51620B1137F14FE1201F030B1FD7F24
:10011700147E001201F075160120B0147F147E00C2
:100127001201F030B0FD7F147E001201F075160247
:1001370020B2147F147E001201F030B2FD7F147ECE
:10014700001201F075160320B3147F147E0012010C
:10015700F030B3FD7F147E001201F0751604AF1660
:010167002275
:0C0205000A083F065B4F666D7D077F6FA7
:10009A00EF14B4080050549000AF75F003A4C58360
:1000AA0025F0C583730200C70200CB0200CF02000D
:1000BA00D30200D70200DF0200E70200EFD2A480D9
:1000CA000ED2A48012D2A48016D2A4801AC2A4D2BC
:1000DA00A3D2A28016C2A4D2A3C2A2800EC2A4C274
:1000EA00A3D2A28006C2A4C2A3C2A274082DF8E6B3
:0D00FA00F5807F017E001201F0E4F5802208
:1001D9005389F0438901758A9C758CFFC28DD28C35
:0701E900D2A9D2AFC2B92276
:0300000002000EED
:0C000E00787FE4F6D8FD758116020055DD
:10001A00020168E493A3F8E493A34003F68001F293
:10002A0008DFF48029E493A3F85407240CC8C333E7
:10003A00C4540F4420C8834004F456800146F6DFB6
:10004A00E4800B0102040810204080900205E47E3F
:10005A00019360BCA3FF543F30E509541FFEE493AB
:10006A00A360010ECF54C025E060A840B8E493A372
:10007A00FAE493A3F8E493A3C8C582C8CAC583CA9D
:10008A00F0A3C8C582C8CAC583CADFE9DEE780BE55
:0102110000EC
:00000001FF
