:1003CE00EF1FAC0670011E4C600A7D027CC7DCFE7E
:0403DE00DDFC80ECD6
:0103E20022F8
:10012E00E4F52720B1137F14FE1203CE30B1FD7F0C
:10013E00147E001203CE75270120B0147F147E00AA
:10014E001203CE30B0FD7F147E001203CE7527024F
:10015E0020B2147F147E001203CE30B2FD7F147EC7
:10016E00001203CE75270320B3147F147E001203F2
:10017E00CE30B3FD7F147E001203CE752704AF2759
:01018E00224E
:0E040600436C6F636B3A0020203A20203A00CE
:0400030002180000DF
:1001E2001203E31203B77BFF7A0479067D017F01D4
:1001F2001203587BFF7A04790D7D017F02120358A6
:10020200E51BFB7A00750C027D017F02120334E5C7
:100212001CFB7A00750C027D047F02120334E51A7E
:0F022200FB7A00750C027D077F0212033480D136
:03000B0002018F60
:04018F00C0E0C0D03C
:10019300758A18758CFC0519E51970020518C39446
:1001A300E8E51894034033751800751900051AE53E
:1001B3001A943C748094804021751A00051CE51C38
:1001C300943C748094804012751C00051BE51B94BD
:0A01D30018748094804003751B002F
:0501DD00D0D0D0E0329B
:1003B7005389F0438901758A18758CFCC28DD28CDC
:0703C700D2A9D2AFC2B92296
:0603F700C2A58F80D2A711
:0803FD007F027EEFDEFEDFFC53
:0104050022D4
:0A041400C2A61203F7C2A70203FDFF
:10037B00CFCDCFCECCCE12004D7C007D0A12004DDE
:04038B00ED2430FF2E
:0A038F00D2A61203F7C2A70203FD75
:10039900AE07EEFB7A0064017004ED148009EB648A
:0E03A900024A7009ED243F4480FF1204142222
:1003E3007F381204147F0C1204147F061204147F46
:0403F30001020414EB
:0A041E00AC03120399AF0402038F30
:060358008B088A09890AE6
:10035E00120399E4FDAB08AA09A90A8D82758300E0
:0C036E0012000EFF600612038F0D80E9E4
:01037A002260
:0A030300EF24FFFDEE34FFFC7F0A3B
:08030D008E0D8F0E8C0F8D1078
:100315007F017E00E4FBEBC39510E50F6480F87464
:0E0325008098500AAC0DAD0E12003B0B80E824
:0103330022A7
:040334008A0A8B0B9B
:10033800120399AA0CEAFF7E00D39400748094807B
:0F034800400D120303AC0AAD0B12037B1A80E6C3
:010357002283
:04027C008B828A8364
:10028000120399C3E58364809480400D7F2B120391
:100290008F85831685821780107F2D12038FC3E40C
:1002A0009582F517E49583F516AA15EAFF7E00D32B
:1002B000940074809480400D120303AC16AD1712A5
:0502C000037B1A80E63B
:0102C5002216
:040231008A1F8B2075
:10023500120399AA21EAD39400748094804037EA86
:1002450024FFFDE434FFFC7F107E0012030DAC1F7C
:10025500AD20CFCDCFCECCCE12004DEF540FFEC387
:10026500940A74809480EE5004243080022437FF71
:0602750012038F1A80BF86
:01027B002260
:0402C6008A248B25D6
:1002CA00120399AA26EAFF7E00D3940074809480D0
:1002DA004026EF24FFFDEE34FFFC7F0212030DAC33
:1002EA0024AD25CFCDCFCECCCE12004DEF54012474
:0802FA0030FF12038F1A80CDC2
:0103020022D8
:030000000200A259
:0C00A200787FE4F6D8FD7581270200E9A4
:10000E00BB010CE58229F582E5833AF583E02250A7
:10001E0006E92582F8E622BBFE06E92582F8E222F1
:0D002E00E58229F582E5833AF583E493220B
:10003B00EF8DF0A4A8F0CF8CF0A428CE8DF0A42ED9
:02004B00FE2293
:10004D00BC000BBE0029EF8DF084FFADF022E4CC97
:10005D00F875F008EF2FFFEE33FEEC33FCEE9DEC60
:10006D00984005FCEE9DFE0FD5F0E9E4CEFD22EDA6
:10007D00F8F5F0EE8420D21CFEADF075F008EF2FF0
:10008D00FFED33FD4007985006D5F0F222C398FDE1
:05009D000FD5F0EA227E
:1000AE000201E2E493A3F8E493A34003F68001F285
:1000BE0008DFF48029E493A3F85407240CC8C33353
:1000CE00C4540F4420C8834004F456800146F6DF22
:1000DE00E4800B0102040810204080900003E47EAF
:1000EE00019360BCA3FF543F30E509541FFEE49317
:1000FE00A360010ECF54C025E060A840B8E493A3DE
:10010E00FAE493A3F8E493A3C8C582C8CAC583CA08
:10011E00F0A3C8C582C8CAC583CADFE9DEE780BEC0
:0100070000F8
:00000001FF
