:10003900C2A57D807C00E4FF1200617D407C007FC9
:10004900011200617D207C007F021200617D107C1D
:08005900007F0312006180DA50
:10008300EF1FAC0670011E4C600A7D027CC7DCFECC
:04009300DDFC80EC24
:010097002246
:0500A400C2B6C2B52246
:02000300AD0747
:10000500E4FBEBC394087480948050237E007480D5
:10001500A803088006CEA2E713CE13D8F8FFEDF5A6
:1000250082EF558224FF92B4D2B6C2B60B80D3D2EA
:03003500B5C2B59C
:0100380022A5
:10006100AA07AF05120003AF02A807748008800237
:10007100C313D8FCF4F5807F017E001200837580E4
:02008100FF225C
:0300000002009863
:0C009800787FE4F6D8FD7581070200397E
:00000001FF
