:1002CA00EF1FAC0670011E4C600A7D027CEFDCFE5B
:0402DA00DDFC80ECDB
:0102DE0022FD
:0602F300C2A58F80D2A716
:0802F9007F027EEFDEFEDFFC58
:0103010022D9
:0A030E00C2A61202F3C2A70202F910
:10028E00CFCDCFCECCCE1200427C007D0A120042E2
:04029E00ED2430FF1C
:0A02A200D2A61202F3C2A70202F96D
:1002AC00AE07EEFB7A0064017004ED148009EB6478
:0E02BC00024A7009ED243F4480FF12030E2217
:1002DF007F3812030E7F0C12030E7F0612030E7F60
:0402EF000102030EF7
:0A031800AC031202ACAF040202A213
:06026B008B088A09890AD4
:100271001202ACE4FDAB08AA09A90A8D82758300BC
:0C028100120003FF60061202A20D80E9CB
:01028D00224E
:0A01E500EF24FFFDEE34FFFC7F0A5B
:0801EF008E0D8F0E8C0F8D1098
:1001F7007F017E00E4FBEBC39510E50F6480F87484
:0E0207008098500AAC0DAD0E1200300B80E84E
:0102150022C6
:040247008A0A8B0B89
:10024B001202ACAA0CEAFF7E00D394007480948057
:0F025B00400D1201E5AC0AAD0B12028E1A80E6BF
:01026A002271
:04015E008B828A8383
:100162001202ACC3E58364809480400D7F2B12029F
:10017200A285831685821780107F2D1202A2C3E406
:100182009582F517E49583F516AA15EAFF7E00D34A
:10019200940074809480400D1201E5AC16AD1712E4
:0501A200028E1A80E648
:0101A7002235
:040113008A1A8B1B9E
:100117001202ACAA1CEAD39400748094804037EA98
:1001270024FFFDE434FFFC7F107E001201EFAC1AC0
:10013700AD1BCFCDCFCECCCE120042EF540FFEC3B6
:10014700940A74809480EE5004243080022437FF90
:060157001202A21A80BF93
:01015D00227F
:0401A8008A1F8B20FF
:1001AC001202ACAA21EAFF7E00D3940074809480E2
:1001BC004026EF24FFFDEE34FFFC7F021201EFAC72
:1001CC001FAD20CFCDCFCECCCE120042EF540124A8
:0801DC0030FF1202A21A80CDCF
:0101E40022F8
:0403220041444A0008
:100216001202DF7BFF7A0379227D017F0112026BD6
:100226007F9C1200977522008F23750C04AB23AABE
:10023600227D017F021202477F057E001202CA80DC
:01024600DFD8
:020097008F08D0
:10009900E4F50AF50BC2B6C2B5F509C3E50994083A
:1000A9007480948050287E007480A809088006CE48
:1000B900A2E713CE13D8F8FFEF550824FF92B4D264
:1000C900B67F017E001202CAC2B6050980CDE4F5E9
:1000D90009C3E5099410748094805026D2B67F0133
:1000E9007E001202CAC2B630B7147E80E4A809089D
:1000F9008005CEC313CE13D8F9420BEE420A050987
:0901090080CFD2B5E50AFF7E00AB
:0101120022CA
:03000000020302F6
:0C030200787FE4F6D8FD75812302021616
:10000300BB010CE58229F582E5833AF583E02250B2
:1000130006E92582F8E622BBFE06E92582F8E222FC
:0D002300E58229F582E5833AF583E4932216
:10003000EF8DF0A4A8F0CF8CF0A428CE8DF0A42EE4
:02004000FE229E
:10004200BC000BBE0029EF8DF084FFADF022E4CCA2
:10005200F875F008EF2FFFEE33FEEC33FCEE9DEC6B
:10006200984005FCEE9DFE0FD5F0E9E4CEFD22EDB1
:10007200F8F5F0EE8420D21CFEADF075F008EF2FFB
:10008200FFED33FD4007985006D5F0F222C398FDEC
:050092000FD5F0EA2289
:00000001FF
