:10045B00577269746500202020202000526561646A
:01046B000090
:10000300120447750C04AB1EAA1D7D017F01120368
:100013008B12019E8F1FEF64017015051EE51E7084
:1000230002051D750C04FBAA1D7D017F011201FF52
:10003300E51F64027016E51E151E7002151D750C72
:1000430004AB1EAA1D7D017F011201FFE51F64049D
:100053007040FCAD1EFF1203AF7F0A7E0012043214
:10006300E51DFD7C007F011203AF7F0A7E001204B1
:10007300327BFF7A04795B7D017F021203D37FE831
:100083007E031204327BFF7A0479617D017F0212C1
:1000930003D3E51F640360030200147F01120334DA
:1000A300EFFB7A00750C027D067F011201FFE4FF6E
:1000B300120334EFFB7A00750C027D087F011201F5
:1000C300FFE4FF120334751D008F1E7F01120334FA
:1000D300EFFEEE421D750C04AB1EAA1D7D017F01D0
:1000E3001201FF7BFF7A0479677D017F021203D33C
:1000F3007FE87E031204327BFF7A0479617D017FFE
:07010300021203D3020014F5
:10043200EF1FAC0670011E4C600A7D027CC7DCFE19
:04044200DDFC80EC71
:010446002293
:10019E00E4F50820B1137F14FE12043230B1FD7F56
:1001AE00147E0012043275080120B0147F147E00F4
:1001BE0012043230B0FD7F147E0012043275080234
:1001CE0020B2147F147E0012043230B2FD7F147EF2
:1001DE000012043275080320B3147F147E0012043B
:1001EE003230B3FD7F147E00120432750804AF085E
:0101FE0022DE
:06046C00C2A58F80D2A79B
:080472007F027EEFDEFEDFFCDD
:01047A00225F
:0A049400C2A612046CC2A702047293
:1003F600CFCDCFCECCCE1201497C007D0A12014969
:04040600ED2430FFB2
:0A040A00D2A612046CC2A70204720D
:10041400AE07EEFB7A0064017004ED148009EB640E
:0E042400024A7009ED243F4480FF1204942226
:100447007F381204947F0C1204947F061204947F61
:040457000102049406
:0A049E00AC03120414AF0402040AB8
:0603D3008B088A09890A6B
:1003D900120414E4FDAB08AA09A90A8D82758300E9
:0C03E90012010AFF600612040A0D80E9F0
:0103F50022E5
:0A030300EF24FFFDEE34FFFC7F0A3B
:08030D008E0D8F0E8C0F8D1078
:100315007F017E00E4FBEBC39510E50F6480F87464
:0E0325008098500AAC0DAD0E1201370B80E827
:0103330022A7
:04038B008A0A8B0B44
:10038F00120414AA0CEAFF7E00D3940074809480A8
:0F039F00400D120303AC0AAD0B1203F61A80E6F1
:0103AE00222C
:04024A008B828A8396
:10024E00120414C3E58364809480400D7F2B120446
:10025E000A85831685821780107F2D12040AC3E447
:10026E009582F517E49583F516AA15EAFF7E00D35D
:10027E00940074809480400D120303AC16AD1712D7
:05028E0003F61A80E6F2
:010293002248
:0401FF008A0A8B0BD2
:10020300120414AA0CEAD39400748094804037EA51
:1002130024FFFDE434FFFC7F107E0012030DAC0AC3
:10022300AD0BCFCDCFCECCCE120149EF540FFEC3D1
:10023300940A74809480EE5004243080022437FFA3
:0602430012040A1A80BF3C
:010249002292
:040294008A1A8B1B1C
:10029800120414AA1CEAFF7E00D394007480948090
:1002A8004026EF24FFFDEE34FFFC7F0212030DAC65
:1002B8001AAD1BCFCDCFCECCCE120149EF540124BD
:0802C80030FF12040A1A80CD78
:0102D000220B
:1003AF008F088C098D0A1204A87FA01202D11204A3
:1003BF007BAF081202D112047BAF0A1202D11204D2
:0403CF007B0204BAEF
:020334008F0830
:100336001204A87FA01202D112047BAF081202D1C8
:1003460012047B1204A87FA11202D112047B1203AD
:0D035600648F097F011204B11204BAAF09CF
:010363002277
:0904A800D2A1D2A0C2A0C2A1227F
:0704BA00C2A0D2A1D2A022D2
:0202D100AD0777
:1002D300E4FBEBC394087480948050237E00748005
:1002E300A803088006CEA2E713CE13D8F8FFEDF5D6
:0F02F30082EF558224FF92A0D2A1C2A10B80D32B
:0103020022D8
:10036400E4FFD2A0FEEEC39408748094805017D2A8
:10037400A130A00DA8067480088002C313D8FC42E3
:0603840007C2A10E80DF9C
:01038A002250
:0904B1008F0AC2A0D2A1C2A1224F
:0C047B00E4FFD2A0D2A130A0010FC2A16A
:010487002252
:030000000204886F
:0C048800787FE4F6D8FD75811F020003A8
:10010A00BB010CE58229F582E5833AF583E02250AA
:10011A0006E92582F8E622BBFE06E92582F8E222F4
:0D012A00E58229F582E5833AF583E493220E
:10013700EF8DF0A4A8F0CF8CF0A428CE8DF0A42EDC
:02014700FE2296
:10014900BC000BBE0029EF8DF084FFADF022E4CC9A
:10015900F875F008EF2FFFEE33FEEC33FCEE9DEC63
:10016900984005FCEE9DFE0FD5F0E9E4CEFD22EDA9
:10017900F8F5F0EE8420D21CFEADF075F008EF2FF3
:10018900FFED33FD4007985006D5F0F222C398FDE4
:050199000FD5F0EA2281
:00000001FF
